:100000000C942A000C943F000C943F000C943F0089
:100010000C943F000C943F000C943F000C943F0064
:100020000C943F000C943F000C943F000C943F0054
:100030000C943F000C943F000C943F000C943F0044
:100040000C943F000C943F000C943F000C943F0034
:100050000C943F0011241FBECFE5D4E0DEBFCDBF1E
:1000600010E0A0E6B0E0EEE0F1E002C005900D92F5
:10007000A838B107D9F70E9464000C9485000C944D
:1000800000005D9BFECF8CB908955F9BFECF8CB1C5
:1000900008950F931F93CF938C01C0E0F801EC0FEC
:1000A000F11D8081882321F0CF5F0E944100F6CFAF
:1000B000CF911F910F9108950E9449008DE00E94F9
:1000C00041008AE00C94410083E390E00E947D00AF
:1000D00080E690E00E945C0087E690E00E945C0071
:1000E0000E944500C82F89E790E00E9449008C2FAC
:1000F0000E94410087E890E0F1CF90BD89B91BB81C
:0E01000088E18AB98EE880BD0895F894FFCF9B
:10010E00CFF0E8E2E5F200D1E0E9F23A206D696362
:10011E00726F2D70692E727500C2FB20EEF2EFF039
:08012E00E0E2E8EBE83A2000F2
:00000001FF
